:100000000C9434000C943E000C943E000C943E0082
:100010000C943E000C943E000C943E000C943E0068
:100020000C943E000C943E000C943E000C943E0058
:100030000C943E000C943E000C943E000C943E0048
:100040000C943E000C943E000C943E000C943E0038
:100050000C943E000C943E000C943E000C943E0028
:100060000C943E000C943E0011241FBECFEFD8E04C
:10007000DEBFCDBF0E9486000C94AE000C94000041
:10008000FC019A018532910529F088329105C1F071
:100090008B9711F4683008F0089522303105E0F7AD
:1000A00081E090E001C0880F6A95EAF790812130E5
:1000B000310519F4892B8083089580958923FBCF1E
:1000C000673058F30895FC019A018432910529F0B4
:1000D00087329105C1F08A9711F4683008F00895CD
:1000E00022303105E0F781E090E001C0880F6A9589
:1000F000EAF790812130310519F4892B8083089526
:1001000080958923FBCF673058F3089541E050E094
:1001100067E08AE290E00E94630041E050E067E01F
:100120008BE290E00E9440002FEF83ED90E321509E
:1001300080409040E1F700C0000050E040E067E000
:100140008BE290E00E9440002FEF83ED90E321507E
:1001500080409040E1F700C00000DFCFF894FFCF6F
:00000001FF
