:100000000C9434000C9440000C943E000C943E0080
:100010000C943E000C943E000C943E000C943E0068
:100020000C943E000C943E000C943E000C943E0058
:100030000C943E000C943E000C943E000C943E0048
:100040000C943E000C943E000C943E000C943E0038
:100050000C943E000C943E000C943E000C943E0028
:100060000C943E000C943E0011241FBECFEFD8E04C
:10007000DEBFCDBF0E944D000C945D000C940000CB
:100080008F938FB78F939F938BB190E189278BB913
:100090009F918F918FBF8F911895549A52985A9A29
:1000A000809169008E7F80936900809169008260F1
:0E00B00080936900E89A7894FFCFF894FFCF10
:00000001FF
